:100000000A128A11FC2F00308A000408840A820731
:100010000034573472346F346E34673420344634CD
:1000200075346E346334743469346F346E34003430
:10003000573472346F346E346734203449346E343C
:0800400070347534743400348F
:10046200831203138601F0308316031386007F3054
:10047200F00070088105080001300A128A11FD227D
:100482000A128A110D30F600FB30F500F50B472AEF
:10049200F60B472A4C2A08006E30F3007308F4006A
:1004A2005A2A0A128A1158260A128A11F30073086C
:1004B200F4006E30740603195F2A602A522A740807
:1004C2000800F300F201731C672A682A6C2A70087C
:1004D200F1007108F2070310F00D0310F30C73081A
:1004E200031D742A752A642A7208080083120313F2
:1004F20008140430F1003D30F000F00B7E2AF10BBD
:100502007E2A832A8312031308100430F1003D303F
:10051200F000F00B8A2AF10B8A2A8F2A0800F600D3
:10052200A22A760884000A128A1103200A128A116A
:100532000A128A1129230A128A110130F50075085C
:10054200F607760884000A128A1103200A128A1119
:10055200003A031DAD2AAE2A922A0800F401F501E1
:10056200701CB42AB52ABB2A7208F4070318F50ACC
:100572007308F50701300310F20DF30DFF3E031D62
:10058200BC2A01300310F10CF00CFF3E031DC32AFC
:1005920070087104031DCE2ACF2AB12A7508F10012
:1005A2007408F00008000A128A113D220A128A1108
:1005B200EF2A10300A128A1190220A128A11FC2A9A
:1005C20001300A128A1190220A128A11FC2A103072
:1005D2000A128A1190220A128A11FC2A7808003A19
:1005E2000319F42AE82A7708003A0319DA2A013AA9
:1005F2000319E12AE82A0800F40083120313881081
:100602000F30F200720888057408F039F20072089F
:1006120088040A128A1177220A128A110F30F20014
:1006220072088312031388057408F2000330031062
:10063200F20DFF3E031D182B0310720DF039F3006B
:10064200730888040A128A1177220A128A11080092
:10065200F4008312031388140F30F2007208880525
:100662007408F039F200720888040A128A1177229B
:100672000A128A110F30F2007208831203138805DE
:100682007408F20003300310F20DFF3E031D442BE9
:100692000310720DF039F300730888040A128A11EC
:1006A20077220A128A110800F90043307906031DE5
:1006B2005B2B5C2B632B0A128A113D220A128A11D0
:1006C2006530862B2B3079060319682B692B852B15
:1006D2002D30790603196E2B6F2B852B7830790616
:1006E2000319742B752B852B2F30790603197A2B5E
:1006F2007B2B852B0130F7000030F8000A128A119B
:10070200D4220A128A11612B79080800831203137A
:10071200A101FA1F8D2B8E2B992BF909FA09F90ADF
:100722000319FA0A2D300A128A1129230A128A1190
:100732000A30F0000030F1007A08F3007908F20084
:100742000A128A11D2230A128A117008FB007B084E
:1007520083120313A10021080319B02BB12BB82B6C
:100762002108303E0A128A1129230A128A11F63010
:10077200FB007B08F0008312031321080A128A117E
:1007820062220A128A117907FC007C088312031381
:10079200A0002008303E0A128A1129230A128A1167
:1007A2000800F601F11FD62BD72BDE2BF009F10939
:1007B200F00A0319F10AF601F60AF31FE12BE22B04
:1007C200EB2BF209F309F20A0319F30A0130F400E0
:1007D2007408F606F701F801700871040319F22B88
:1007E200F32B2A2CF501F50A012C01300310F00D30
:1007F200F10DFF3E031DF72B0130F4007408F507DD
:10080200F11F042C052CF62B01300310F70DF80D07
:10081200FF3E031D062C71087302031D122C700883
:100822007202031C152C162C1D2C7008F202710882
:10083200031CF303F302771401300310F10CF00CE4
:10084200FF3E031D1E2C0130F502031D292C2A2C0C
:10085200052C760803192E2C2F2C342CF709F809B5
:10086200F70A0319F80A7808F1007708F00008007F
:1008720083120313A000822CA101A201AD2C01302E
:10088200A1000030A200AD2C0230A1000030A20075
:10089200AD2C0330A1000030A200AD2C0430A10029
:1008A2000030A200AD2C0530A1000030A200AD2C1A
:1008B2000630A1000030A200AD2C0730A1000030AC
:1008C200A200AD2C0830A1000030A200AD2C0930EE
:1008D200A1000030A200AD2C0A128A113D220A1298
:1008E2008A110D3083120313A1000030A200AD2C37
:1008F2000030F700F8000A128A11D4220A128A1173
:10090200722C2008FB00FC017C08003A03198A2C97
:10091200792C7B08303A03193D2C013A0319402CFB
:10092200033A0319452C013A03194A2C073A0319D1
:100932004F2C013A0319542C033A0319592C013A4A
:1009420003195E2C0F3A0319632C013A0319682C20
:100952007A3A03196D2C792C2208FA002108F90041
:100962000800831203130810881008128812081353
:1009720088138316031308108810081288120813AC
:1009820088130230F7000430F600BA30F500F50B98
:10099200C82CF60BC82CF70BC82C00000F30F50042
:1009A20075088312031388053030F5007508880432
:1009B2000A128A1177220A128A112730F600F530BC
:1009C200F500F50BE22CF60BE22C0F30F500750862
:1009D2008312031388053030F500750888040A1263
:1009E2008A1177220A128A11D630F500F82CF92CD6
:1009F200F50BF72C00000F30F50075088312031376
:100A020088053030F500750888040A128A117722A9
:100A12000A128A110D30F600FB30F500F50B0F2D8E
:100A2200F60B0F2D142D0F30F500750883120313EA
:100A3200880588160A128A1177220A128A110D3045
:100A4200F600FB30F500F50B242DF60B242D292D95
:100A520028300A128A11FD220A128A110C300A1257
:100A62008A11FD220A128A1101300A128A11FD220C
:100A72000A128A1106300A128A11FD220A128A11FA
:100A820008000A128A1131220A128A110A128A11E4
:100A9200B2240A128A110A128A114D220A128A11EA
:100AA20083120313A3002308AC000A128A113D2209
:100AB2000A128A11831203132C080A128A1129239B
:100AC2000A128A11831203132C080A128A1139247A
:100AD2000A128A117A0883120313A9007908A8005E
:100AE2000D30280629040319772D782D4C2D0A1272
:100AF2008A114D220A128A1183120313A3002308BA
:100B0200AC002C080A128A1129230A128A118312B4
:100B120003132C080A128A1155230A128A1183120E
:100B22000313A3002308A7006530270603199A2D93
:100B32009B2D4C2D0A128A114D220A128A11831200
:100B42000313A3002308AC002C080A128A112923DC
:100B52000A128A11831203132C080A128A113924E9
:100B62000A128A117A0883120313AB007908AA00C9
:100B72000D302A062B040319BF2DC02D4C2D0A124D
:100B82008A114D220A128A1183120313A300230829
:100B9200AC002C080A128A1129230A128A113D304C
:100BA200831203132C06031DD72DD82D3F2E292E79
:100BB2002A082807F9002B0803182B0A2907FA002C
:100BC2000A128A1187230A128A114C2D2A08280236
:100BD200F9002B08031C2B0A2902FA000A128A11B7
:100BE20087230A128A114C2D2908F1002808F000E7
:100BF2002B08F3002A08F2000A128A11AF220A1205
:100C02008A117108FA007008F9000A128A11872302
:100C12000A128A114C2D2B08F1002A08F00029082B
:100C2200F3002808F2000A128A11D2230A128A114A
:100C3200710883120313A6007008A5002608FA00A3
:100C42002508F9000A128A1187230A128A114C2DEB
:100C52002708A300A4012408003A0319312E542EB8
:100C620023082B3A0319D92D063A0319E72D023A24
:100C720003190C2E573A0319F52D542E43302C0626
:100C8200031D442E452E4B2E0A128A113D220A12B2
:100C92008A114C2D0030F700F8000A128A11D42272
:100CA2000A128A114C2D4C2D0A128A110028831225
:100CB20003130610861406158615061A612E622E77
:100CC200772E0730F2005830F1005930F000F00B67
:100CD200682EF10B682EF20B682E6F2E831203130F
:100CE200061E742E752E6F2E3730FB2F861A7A2E23
:100CF2007B2E902E0730F2005830F1005930F00070
:100D0200F00B812EF10B812EF20B812E882E831295
:100D12000313861E8D2E8E2E882E3830FB2F061B37
:100D2200932E942EA92E0730F2005830F10059303C
:100D3200F000F00B9A2EF10B9A2EF20B9A2EA12EA6
:100D420083120313061FA62EA72EA12E3930FB2FC6
:100D5200861BAC2EAD2EC22E0730F2005830F100A9
:100D62005930F000F00BB32EF10BB32EF20BB32E71
:100D7200BA2E83120313861FBF2EC02EBA2E2F3017
:100D8200FB2F0614861006158615061AC92ECA2EC2
:100D9200DF2E0730F2005830F1005930F000F00B2E
:100DA200D02EF10BD02EF20BD02ED72E831203139E
:100DB200061EDC2EDD2ED72E3430FB2F861AE22EB5
:100DC200E32EF82E0730F2005830F1005930F000CF
:100DD200F00BE92EF10BE92EF20BE92EF02E831225
:100DE2000313861EF52EF62EF02E3530FB2F061B32
:100DF200FB2EFC2E112F0730F2005830F100593033
:100E0200F000F00B022FF10B022FF20B022F092F31
:100E120083120313061F0E2F0F2F092F3630FB2FBD
:100E2200861B142F152F2A2F0730F2005830F1009D
:100E32005930F000F00B1B2FF10B1B2FF20B1B2F65
:100E4200222F83120313861F272F282F222F783059
:100E5200FB2F0614861406118615061A312F322F1F
:100E6200472F0730F2005830F1005930F000F00BF4
:100E7200382FF10B382FF20B382F3F2F8312031329
:100E8200061E442F452F3F2F3130FB2F861A4A2F43
:100E92004B2F602F0730F2005830F1005930F0002C
:100EA200F00B512FF10B512FF20B512F582F8312B0
:100EB2000313861E5D2F5E2F582F3230FB2F061B29
:100EC200632F642F792F0730F2005830F100593028
:100ED200F000F00B6A2FF10B6A2FF20B6A2F712FC1
:100EE20083120313061F762F772F712F3330FB2FB8
:100EF200861B7C2F7D2F922F0730F2005830F10095
:100F02005930F000F00B832FF10B832FF20B832F5C
:100F12008A2F83120313861F8F2F902F8A2F2D3033
:100F2200FB2F0614861406158611061A992F9A2F7E
:100F3200AF2F0730F2005830F1005930F000F00BBB
:100F4200A02FF10BA02FF20BA02FA72F83120313B8
:100F5200061EAC2FAD2FA72F4330FB2F861AB22FC0
:100F6200B32FC82F0730F2005830F1005930F0008B
:100F7200F00BB92FF10BB92FF20BB92FC02F83123F
:100F82000313861EC52FC62FC02F3030FB2F061B22
:100F9200CB2FCC2FE12F0730F2005830F10059301F
:100FA200F000F00BD22FF10BD22FF20BD22FD92F50
:100FB20083120313061FDE2FDF2FD92F3D30FB2FA5
:100FC200861BE42FE52FFA2F0730F2005830F1008C
:100FD2005930F000F00BEB2FF10BEB2FF20BEB2F54
:100FE200F22F83120313861FF72FF82FF22F2B30C5
:0E0FF200FB2F6E30080083010A128A11422D77
:00000001FF
